:020000042000DA
:100000000000012099020020090300200B030020BA
:100010000D0300200F03002011030020000000004A
:10002000000000000000000000000000130300209A
:100030001503002000000000170300201903002012
:100040001B0300201D0300201F03002021030020AC
:10005000230300202503002027030020290300207C
:100060002B0300202D030020BD140020E9140020E4
:10007000330300203503002037030020390300201C
:100080003B0300203D0300203F03002041030020EC
:1000900043030020450300204703002049030020BC
:1000A0004B030020000000000000000000000000E2
:1000B0000000000000000000000000004D030020D0
:1000C0004F0300205103002053030020550300205C
:1000D00057030020590300205B0300205D0300202C
:1000E0005F030020610300206303002065030020FC
:1000F00067030020690300206B0300206D030020CC
:100100006F0300207103002073030020750300209B
:1001100077030020790300207B0300207D0300206B
:100120007F0300208103002083030020850300203B
:1001300087030020890300208B0300208D0300200B
:100140008F030020910300209303002095030020DB
:1001500097030020990300209B0300209D030020AB
:100160009F030020A1030020A3030020A50300207B
:10017000A7030020A9030020AB030020AD0300204B
:10018000AF030020B1030020B3030020B50300201B
:10019000B7030020B9030020BB030020BD030020EB
:1001A000BF030020C1030020C3030020C5030020BB
:1001B000C7030020C9030020CB030020CD0300208B
:1001C000CF030020D1030020D3030020D50300205B
:1001D000D7030020D9030020DB030020DD0300202B
:1001E000DF030020E1030020E3030020E5030020FB
:1001F000E7030020E9030020EB030020ED030020CB
:10020000EF030020F1030020F3030020F50300209A
:10021000F7030020F9030020FB030020FD0300206A
:10022000FF03002001040020030400200504002037
:1002300007040020090400200B0400200D04002006
:100240000F040020110400201304002015040020D6
:1002500017040020190400201B0400201D040020A6
:100260001F04002021040020230400202504002076
:1002700027040020290400202B0400202D04002046
:100280002F04002031040020330400203504002016
:100290003704002039040020684880476848002857
:1002A0000BD168486849694A884206D091421CBF10
:1002B00050F8043B41F8043BF8D165486549664A6B
:1002C000884206D091421CBF50F8043B41F8043BE1
:1002D000F8D162486249634A914218BF41F8040B61
:1002E000FAD1000000000000000000000000000043
:1002F000DFF874010FF2030E00474FF000004FF0DB
:100300000001DFF868F1FEE7FEE7FEE7FEE7FEE743
:10031000FEE7FEE7FEE7FEE7FEE7FEE7FEE7FEE7B5
:10032000FEE7FEE7FEE7FEE7FEE7FEE7FEE7FEE7A5
:10033000FEE7FEE7FEE7FEE7FEE7FEE7FEE7FEE795
:10034000FEE7FEE7FEE7FEE7FEE7FEE7FEE7FEE785
:10035000FEE7FEE7FEE7FEE7FEE7FEE7FEE7FEE775
:10036000FEE7FEE7FEE7FEE7FEE7FEE7FEE7FEE765
:10037000FEE7FEE7FEE7FEE7FEE7FEE7FEE7FEE755
:10038000FEE7FEE7FEE7FEE7FEE7FEE7FEE7FEE745
:10039000FEE7FEE7FEE7FEE7FEE7FEE7FEE7FEE735
:1003A000FEE7FEE7FEE7FEE7FEE7FEE7FEE7FEE725
:1003B000FEE7FEE7FEE7FEE7FEE7FEE7FEE7FEE715
:1003C000FEE7FEE7FEE7FEE7FEE7FEE7FEE7FEE705
:1003D000FEE7FEE7FEE7FEE7FEE7FEE7FEE7FEE7F5
:1003E000FEE7FEE7FEE7FEE7FEE7FEE7FEE7FEE7E5
:1003F000FEE7FEE7FEE7FEE7FEE7FEE7FEE7FEE7D5
:10040000FEE7FEE7FEE7FEE7FEE7FEE7FEE7FEE7C4
:10041000FEE7FEE7FEE7FEE7FEE7FEE7FEE7FEE7B4
:10042000FEE7FEE7FEE7FEE7FEE7FEE7FEE7FEE7A4
:10043000FEE7FEE7FEE7FEE7FEE7000015150020F9
:100440000000000000000020000000202018002014
:100450002018002020180020441800200000000070
:10046000441800209818002059170020890C0020FB
:1004700041F64403C2F200031A780AB90120187049
:10048000704700BF41F62000C2F2000008B50368C3
:100490002BB140F20003C0F2000303B1984708BD3E
:1004A00080B483B000AF78607B684FF030025A7040
:1004B0007B685A787B681A707B684FF030025A71FB
:1004C0007B685A797B681A717B684FF00702DA7093
:1004D0007B68DA787B689A7007F10C07BD4680BCB0
:1004E000704700BF80B58CB000AF4FF07C0387F839
:1004F0002C304FF0000387F82D3041F2D872C2F251
:10050000000207F1240392E80300186003F10403DA
:10051000198041F2BC72C2F2000207F11C0392E89A
:100520000300186003F10403197041F2E072C2F293
:10053000000207F1140392E80300186003F10403BA
:10054000198041F2C472C2F2000207F1100312686E
:100550001146198003F102034FEA12421A7041F268
:10056000E872C2F2000207F1080392E80300186083
:1005700003F10403198041F2C872C2F200023B4643
:1005800092E80300186003F10403197041F6480073
:10059000C2F200004FF4E1314FF0030200F008FD19
:1005A00007F12C0341F64800C2F2000019464FF053
:1005B000020200F0FFFD07F12C0341F64800C2F2F1
:1005C000000019464FF0020200F0F4FD07F1240389
:1005D00041F64800C2F2000019464FF0060200F052
:1005E000E9FD07F11C0341F64800C2F2000019467C
:1005F0004FF0050200F0DEFD07F1140341F648005C
:10060000C2F2000019464FF0060200F0D3FD07F1D8
:10061000100341F64800C2F2000019464FF00302F1
:1006200000F0C8FD07F1080341F64800C2F20000DF
:1006300019464FF0060200F0BDFD3B4641F648006A
:10064000C2F2000019464FF0050200F0B3FD4FF072
:100650000A004FF01A014FF030024FF06E0300F025
:10066000B5F84FF032004FF042014FF030024FF03A
:100670006E0300F0ABF84FF006004FF046014FF06C
:1006800010024FF0200300F0A1F800F005F807F188
:100690003007BD4680BD00BF80B582B000AF41F2DB
:1006A000D072C2F200023B4692E80300186003F1E8
:1006B000040319803B4641F64800C2F20000194687
:1006C0004FF0060200F076FD4FF07003BB703B4622
:1006D00041F64800C2F2000019464FF0060200F051
:1006E00069FD6FF07F03BB703B4641F64800C2F2E4
:1006F000000019464FF0060200F05CFD6FF06F033A
:10070000BB703B4641F64800C2F2000019464FF06C
:10071000060200F04FFD4FF06803BB704FF0570327
:10072000FB703B4641F64800C2F2000019464FF00C
:10073000060200F03FFD4FF07803BB703B4641F6E8
:100740004800C2F2000019464FF0060200F032FDE8
:100750006FF07703BB703B4641F64800C2F20000E1
:1007600019464FF0060200F025FD4FF07003BB70F4
:100770004FF04703FB703B4641F64800C2F20000D1
:1007800019464FF0060200F015FD6FF07F03BB70B5
:100790003B4641F64800C2F2000019464FF00602FF
:1007A00000F008FD4FF07803BB704FF03703FB708B
:1007B0003B4641F64800C2F2000019464FF00602DF
:1007C00000F0F8FC07F10807BD4680BD80B58AB08F
:1007D00000AFF871B9717A713B714FF07C0387F803
:1007E00020304FF00C0387F82130FB7987F8223056
:1007F0007B7987F82330BB7987F824307B7987F8B9
:1008000025304FF0010387F826304FF07C033B760C
:100810004FF00C037B76FB79BB763B79FB76BB799B
:100820003B773B797B774FF00103BB774FF07C033D
:100830003B744FF00C037B74FB79BB747B79FB74C6
:10084000FB793B753B797B754FF00103BB754FF02E
:100850007C033B724FF00C037B72BB79BB727B79DC
:10086000FB72BB793B733B797B734FF00103BB7326
:1008700007F1200341F64800C2F2000019464FF08C
:10088000070200F097FC07F1180341F64800C2F296
:10089000000019464FF0070200F08CFC07F110032E
:1008A00041F64800C2F2000019464FF0070200F07E
:1008B00081FC07F1080341F64800C2F20000194626
:1008C0004FF0070200F076FC07F12807BD4680BD17
:1008D00080B588B000AF13460246FA710A46BA7175
:1008E0007B714FF00003FB767B79002B06D14FF034
:1008F0000B03FB774FF01903BB7712E07B79012BD9
:1009000006D14FF03303FB774FF04103BB7708E08C
:100910007B79022B05D14FF011037B774FF01F033A
:100920003B77FA79BB799A4246D23DE07B79012B3D
:1009300009D8FB7EDAB2FB791344DBB23B773B7F0D
:10094000DBB27B7708E0FB7EDAB2FB791344DBB2E3
:10095000BB77BB7FDBB2FB77FB7FD8B27B7FD9B2A3
:10096000BB7FDAB23B7FDBB24FF07C0C87F814C060
:100970004FF00C0C87F815C0B875F9753A767B7690
:100980004FF00103BB7607F1140341F64800C2F2B1
:10099000000019464FF0070200F00CFCFB7EDBB2B2
:1009A00003F10103DBB2FB76FA79FB7EDBB21A447A
:1009B000BB799A42BADB49E0BA79FB799A4245D2CF
:1009C0003DE07B79012B09D8FB7EDAB2BB79134479
:1009D000DBB23B773B7FDBB27B7708E0FB7EDAB2B2
:1009E000BB791344DBB2BB77BB7FDBB2FB77FB7F0A
:1009F000D8B27B7FD9B2BB7FDAB23B7FDBB24FF09C
:100A00007C0C87F80CC04FF00C0C87F80DC0B87345
:100A1000F9733A747B744FF00003BB7407F10C0355
:100A200041F64800C2F2000019464FF0070200F0FC
:100A3000C1FBFB7EDBB203F10103DBB2FB76BA79CB
:100A4000FB7EDBB21A44FB799A42BADB07F120073E
:100A5000BD4680BD80B483B000AF03463960FB71F2
:100A600097F90730002B54DB97F90730042B40F33C
:100A7000AB8097F90730132B07DC3B681B7803F139
:100A80000103DAB23B681A709FE097F90730272B11
:100A900007DC3B681B7803F10203DAB23B681A708B
:100AA00093E097F907303B2B07DC3B681B7803F199
:100AB0000303DAB23B681A7087E097F907304F2BCF
:100AC00007DC3B681B7803F10403DAB23B681A7059
:100AD0007BE097F90730632B07DC3B681B7803F159
:100AE0000503DAB23B681A706FE097F907306D2B97
:100AF00007DC3B681B7803F10603DAB23B681A7027
:100B000063E03B681B7803F10703DAB23B681A70B5
:100B10005BE097F9073013F1040F56DA97F90730C5
:100B200013F1130F07DB3B681B7803F1FF33DAB2D5
:100B30003B681A7049E097F9073013F1270F07DB7C
:100B40003B681B78A3F10203DAB23B681A703CE001
:100B500097F9073013F13B0F07DB3B681B78A3F1D4
:100B60000303DAB23B681A702FE097F9073013F1EC
:100B70004F0F07DB3B681B78A3F10403DAB23B6835
:100B80001A7022E097F9073013F1630F07DB3B6817
:100B90001B78A3F10503DAB23B681A7015E097F9E8
:100BA000073013F16D0F07DB3B681B78A3F10603D9
:100BB000DAB23B681A7008E03B681B78A3F10703C0
:100BC000DAB23B681A7000E000BF07F10C07BD46BF
:100BD00080BC704780B485B000AF786040F20403F9
:100BE000C4F20503FB60FB681B6803F001027B682D
:100BF0001A60FB681B6803F002027B685A60FB689E
:100C00001B684FEA2343DAB27B681A72FB681B68E1
:100C10004FEA1363DAB27B685A7207F11407BD46D4
:100C200080BC704780B584B000AF786039607B6865
:100C3000FB603B681B68002B0DD002E03868FFF7B3
:100C4000C9FF3B681B68002BF8D17B6803F10103E7
:100C50007B607B68FB603B685B68002B0DD002E02B
:100C60003868FFF7B7FF3B685B68002BF8D17B68FB
:100C700003F1FF337B607B68FB60FB68184607F17C
:100C80001007BD4680BD00BF80B594B000AF4FF0E7
:100C900000033B644FF0FF337B6407F118034FF010
:100CA00000021A6003F104034FF000021A6003F11E
:100CB00004034FF000021A6003F104034FF0000236
:100CC0001A6003F104034FF000021A6003F10403F9
:100CD0004FF000021A6003F104034FF000021A60A3
:100CE00003F104034FF000021A6003F104034FF014
:100CF00000021A6003F104034FF000021A6003F1CE
:100D000004034FF000037B614FF00003BB604FF022
:100D10000003FB604FF000033B744FF000037B7453
:100D20004FF00003BB64BB6C042B00F2208101A2D6
:100D300052F823F0490D0020D90D0020510E00205B
:100D4000C90E0020410F0020FFF7CCFB3B461846A0
:100D5000FFF7A6FB04E000BF02E000BF00E000BF19
:100D600007F108031846FFF735FFBB68002B19D0C1
:100D700004E007F108031846FFF72CFFBB68002BBF
:100D8000F7D13B6C002B02D03B6C012B03D14FF011
:100D90000103FB641FE03B6C022B03D14FF0070300
:100DA000FB6418E07B7C5BB2052B07DD3B6C012B01
:100DB000D1DC3B6C03F101033B64D1E77B7C5BB28C
:100DC00013F1050FC9DA3B6C002BC8DD3B6C03F156
:100DD000FF333B64C4E7CAE007F108031846FFF796
:100DE000F9FE07F10803B86C1946FFF71BFF03462D
:100DF000FB643B7C5AB23B4603F1030310461946A1
:100E0000FFF728FEFB78062B02D84FF00703FB7094
:100E1000FB78462B02D94FF04603FB70BA78FB787B
:100E2000104619464FF00202FFF752FDFB78BB70E7
:100E30004FF000037B6103E07B6903F101037B61F9
:100E40007A694AF21F13C0F207039A42F4DD8EE07A
:100E500007F108031846FFF7BDFE07F10803B86C59
:100E60001946FFF7DFFE0346FB647B7C5AB23B4624
:100E700003F1050310461946FFF7ECFD7B79302B93
:100E800002D84FF031037B717B796E2B02D94FF082
:100E90006E037B713A797B79104619464FF0000258
:100EA000FFF716FD7B793B714FF000037B6103E098
:100EB0007B6903F101037B617A694AF21F13C0F277
:100EC00007039A42F4DD52E007F108031846FFF7E2
:100ED00081FE07F10803B86C1946FFF7A3FE03462D
:100EE000FB647B7C5AB23B4603F101031046194672
:100EF000FFF7B0FD7B78302B02D84FF031037B70C9
:100F00007B786E2B02D94FF06E037B703A787B783A
:100F1000104619464FF00102FFF7DAFC7B783B7070
:100F20004FF000037B6103E07B6903F101037B6108
:100F30007A694AF21F13C0F207039A42F4DD16E001
:100F400041F62803C2F200031A6848F28043C0F257
:100F50001E03136041F62403C2F200031A6844F230
:100F60004023C0F20F0313604FF00503FB64FB6CDA
:100F7000BB64D8E680B483B000AF0346FB804EF27A
:100F80000013CEF20003B7F906204FEA5212F98897
:100F900001F01F014FF0010000FA01F102F16002BF
:100FA00043F8221007F10C07BD4680BC704700BF14
:100FB00080B588B000AFF860B9601346FB714FF0A0
:100FC0000103FB824FF00003BB61FA6841F6700336
:100FD000C2F200039A4207D0FA6841F64803C2F20F
:100FE00000039A4200D000BEBB68002B00D100BEB7
:100FF00000F096FAFA6841F67003C2F200039A42D2
:101000002ED1FB684FF080421A60FB684FF084429B
:101010005A60FB684FF00A021A8141F63403C2F2AB
:1010200000031B68BB6142F20003CEF2040342F2EC
:101030000002CEF20402126B42F080021A634FF0FB
:101040000A00FFF797FF42F20003CEF2040342F2D8
:101050000002CEF20402126B22F080021A6331E029
:10106000FA6840F20003C4F201031360FA6840F228
:101070000003C4F220235360FB684FF00B021A8177
:1010800041F63803C2F200031B68BB6142F2000361
:10109000CEF2040342F20002CEF20402126B42F4DA
:1010A00080721A634FF00B00FFF764FF42F20003F7
:1010B000CEF2040342F20002CEF20402126B22F4DA
:1010C00080721A63FB681B684FF000021A71BB68DC
:1010D000002B21D0BA69BB68B2FBF3F3FB61FB695B
:1010E00003F00803002B06D0FB694FEA131303F14A
:1010F0000103FB6103E0FB694FEA1313FB61FA692B
:101100004FF6FF739A4200D900BEFA694FF6FF739B
:101110009A4201D8FB69FB82FB685B684FF00102D1
:10112000C3F89C21FB681B68FA8A4FEA122292B22C
:10113000D2B21A71FB681B68FA8AD2B21A70FB68C5
:101140005B684FF00002C3F89C21FB681B68FA79CA
:101150001A73FB681B684FF00E021A72FB685B681B
:101160004FF00002C3F81022FB684FF000021A6132
:10117000FB684FF00002DA60FB684FF000025A6132
:10118000FB684FF00002DA61FA6841F2B533C2F24F
:1011900000031362FB684FF000029A61FB684FF096
:1011A00000025A62FB684FF000029A7207F12007B2
:1011B000BD4680BD80B489B000AFF860B9607A6088
:1011C0004FF000033B61FA6841F67003C2F200037E
:1011D0009A4207D0FA6841F64803C2F200039A42E5
:1011E00000D000BEBB68002B00D100BE7B68002B86
:1011F00000D100BEFA6841F67003C2F200039A42C1
:1012000006D0FA6841F64803C2F200039A423DD183
:10121000BB68002B3AD07B68002B37D0FB681B687B
:101220001B7DFB76FB689A7AFB7E42EA0303DAB207
:10123000FB689A72FB7E03F02003002B23D04FF053
:101240001003FB617B680F2B01D87B68FB614FF0BB
:1012500000037B610EE0FB681B68B9683A690A44C9
:1012600012781A703B6903F101033B617B6903F15A
:1012700001037B617A69FB699A42ECD37A687B69E6
:10128000C3EB02037B607B68002BC7D107F1240707
:10129000BD4680BC704700BF80B584B000AF7860A9
:1012A0007A6841F67003C2F200039A4207D07A6866
:1012B00041F64803C2F200039A4200D000BE7A68A9
:1012C00041F67003C2F200039A4206D07A6841F6F2
:1012D0004803C2F200039A4267D17B681B681B7AFD
:1012E000DBB203F00F03FB73FB7B0C2B54D801A282
:1012F00052F823F0291300209913002045130020F1
:101300009913002061130020991300207D13002001
:10131000991300209913002099130020991300209D
:1013200099130020611300207B685B6A002B00D1B9
:1013300000BE7B685B6A002B30D07B685B6A786894
:10134000984732E07B681B6A002B00D100BE7B68A7
:101350001B6A002B24D07B681B6A7868984724E0BE
:101360007B68DB69002B00D100BE7B68DB69002B4A
:1013700018D07B68DB697868984716E07B689B69C2
:10138000002B00D100BE7B689B69002B0CD07B68D2
:101390009B697868984708E000BE06E000BF04E05B
:1013A00000BF02E000BF00E000BF07F11007BD462C
:1013B00080BD00BF80B487B000AF78607A6841F626
:1013C0007003C2F200039A4207D07A6841F64803DC
:1013D000C2F200039A4200D000BE7B68DB68002B9B
:1013E00000D100BE7B681B69002B00D100BE7A686B
:1013F00041F67003C2F200039A4206D07A6841F6C1
:101400004803C2F200039A4252D17B68DB68002B8A
:101410004ED07B681B69002B4AD07B681B681B7D04
:10142000FB727B689A7AFB7A42EA0303DAB27B6842
:101430009A72FB7A03F02003002B29D04FF010039F
:101440003B617B681A697B685B69C3EB02037B6164
:101450007B690F2B01D87B693B614FF00003FB6078
:1014600012E07B681B687A68D1687A6852690A441E
:1014700012781A707B685B6903F101027B685A611C
:10148000FB6803F10103FB60FA683B699A42E8D309
:101490007B685A697B681B699A4209D17B684FF067
:1014A00000021A617B685B684FF00002C3F8842079
:1014B00007F11C07BD4680BC704700BF684620F09E
:1014C00007018D4689B500AF41F67000C2F20000F9
:1014D000FFF7E2FE4FF00A00FFF74CFDBD46BDE806
:1014E00089408546704700BF684620F007018D4659
:1014F00089B500AF41F64800C2F20000FFF7CCFE0C
:101500004FF00B00FFF736FDBD46BDE8894085462C
:10151000704700BF80B400AFBD4680BC704700BFBD
:1015200080B58AB000AF41F2F073C2F20003BC464E
:101530000FCB8CE80F0042F20003CEF204039B6C49
:101540004FEA930303F003034FEA830307F12802F2
:10155000134453F8283C3B6142F20003CEF20403EB
:101560009B6C4FEA131303F003034FEA830307F165
:101570002802134453F8283C7B6142F20003CEF268
:1015800004039B6C4FEA931303F003034FEA8303B6
:1015900007F12802134453F8283CBB6142F20003D0
:1015A000CEF20403DB6C4FEA132303F01F033B620C
:1015B00042F20003CEF20403DB6C4FEA533303F034
:1015C00001037B623B6A03F10103FB617B6A002B31
:1015D00003D0FB694FEA4303FB6100F049F8024680
:1015E00041F63003C2F200031A6041F63003C2F242
:1015F00000031A683B69B2FBF3F241F63403C2F20E
:1016000000031A6041F63003C2F200031A687B69D6
:10161000B2FBF3F241F63803C2F200031A6041F65E
:101620003003C2F200031A68BB69B2FBF3F241F661
:101630003C03C2F200031A6041F63003C2F2000319
:101640001A68FB69B2FBF3F241F64003C2F20003F1
:101650001A6041F63003C2F200031A6841F62C0307
:10166000C2F200031A6007F12807BD4680BD00BF23
:1016700080B48BB000AF4FF000037B6040F61C03DA
:10168000C6F20803BB6040F23023C6F20803FB60D9
:10169000FB681B6823F070433B613A6941F2CF134A
:1016A000C0F2A1539A4208D14EF62C73C6F2010340
:1016B0007B617B691B687B603DE0BB681A6844F214
:1016C0004133C4F654439A4235D140F64003C6F242
:1016D0000803BB61BB691B68FB61FB6923F07F43A7
:1016E000FB61FA6940F20033C0F201039A4222D949
:1016F000FA694FF6FF73C0F201039A4208D841F22B
:101700002C63C6F208033B623B6A1B687B6012E0F5
:10171000FA694FF6FF73C0F202039A4208D841F605
:10172000AC63C6F208037B627B6A1B687B6002E0E5
:101730004FF000037B607B68002B05D100BE47F6AD
:101740004003C0F27D137B607B68184607F12C07CD
:10175000BD4680BC704700BF70B541F6180641F623
:101760001805C2F20006C2F20005761BB61006D0BC
:10177000002455F8243001349847A642F9D841F6A0
:10178000180541F61C06C2F20005C2F20006761BDF
:1017900000F036F8B61006D0002455F82430013495
:1017A0009847A642F9D870BD50696E6720506F6E99
:1017B000672043616E6E6F6E00000000506F7765AA
:1017C000720000005961770050697463680000007E
:1017D0007C036067070100007C18067C1978000014
:1017E0007C181E7C192A00007C182E7C19780000B9
:1017F00001000000020000000400000001000000E1
:10180000F8B500BFF8BC08BC9E467047F8B500BFED
:10181000F8BC08BC9E467047850400207104002077
:1018200000000000040005400800054040787D01EC
:1018300040787D01105E5F00105E5F00105E5F000B
:04184000105E5F00D7
:04000005200002993C
:00000001FF
